{
  "contractName": "WheelOfFortune",
  "abi": [
    {
      "constant": false,
      "inputs": [],
      "name": "withDrawTips",
      "outputs": [],
      "payable": true,
      "stateMutability": "payable",
      "type": "function"
    },
    {
      "constant": false,
      "inputs": [
        {
          "name": "pieceIdx",
          "type": "uint256"
        }
      ],
      "name": "finishRound",
      "outputs": [],
      "payable": true,
      "stateMutability": "payable",
      "type": "function"
    },
    {
      "constant": false,
      "inputs": [
        {
          "name": "pieceIdx",
          "type": "uint256"
        },
        {
          "name": "betCount",
          "type": "uint256"
        },
        {
          "name": "tips",
          "type": "uint256"
        }
      ],
      "name": "makeBet",
      "outputs": [],
      "payable": true,
      "stateMutability": "payable",
      "type": "function"
    },
    {
      "constant": false,
      "inputs": [
        {
          "name": "newPieceCount",
          "type": "uint256"
        }
      ],
      "name": "increasePieceCount",
      "outputs": [],
      "payable": true,
      "stateMutability": "payable",
      "type": "function"
    },
    {
      "inputs": [
        {
          "name": "initPieceCount",
          "type": "uint256"
        }
      ],
      "payable": true,
      "stateMutability": "payable",
      "type": "constructor"
    },
    {
      "payable": true,
      "stateMutability": "payable",
      "type": "fallback"
    },
    {
      "anonymous": false,
      "inputs": [
        {
          "indexed": false,
          "name": "data",
          "type": "bytes"
        }
      ],
      "name": "FallbackTrigged",
      "type": "event"
    },
    {
      "anonymous": false,
      "inputs": [
        {
          "indexed": false,
          "name": "player",
          "type": "address"
        },
        {
          "indexed": false,
          "name": "pieceIdx",
          "type": "uint256"
        },
        {
          "indexed": false,
          "name": "totalBet",
          "type": "uint256"
        },
        {
          "indexed": false,
          "name": "tips",
          "type": "uint256"
        }
      ],
      "name": "MakeBetEvent",
      "type": "event"
    },
    {
      "anonymous": false,
      "inputs": [
        {
          "indexed": false,
          "name": "winners",
          "type": "address[]"
        },
        {
          "indexed": false,
          "name": "betPool",
          "type": "uint256"
        },
        {
          "indexed": false,
          "name": "pieceIdx",
          "type": "uint256"
        },
        {
          "indexed": false,
          "name": "nextPieceCount",
          "type": "uint256"
        }
      ],
      "name": "FinishRoundEvent",
      "type": "event"
    },
    {
      "anonymous": false,
      "inputs": [
        {
          "indexed": false,
          "name": "count",
          "type": "uint256"
        }
      ],
      "name": "IncreasePieceCountEvent",
      "type": "event"
    }
  ],
  "bytecode": "0x606060405260405160208061078283398101604052808051906020019091905050336000806101000a81548173ffffffffffffffffffffffffffffffffffffffff021916908373ffffffffffffffffffffffffffffffffffffffff1602179055508060038190555080600481905550506107048061007e6000396000f300606060405260043610610062576000357c0100000000000000000000000000000000000000000000000000000000900463ffffffff1680630a5a1e9a146100b65780631fe0ff58146100c0578063779a3611146100d8578063fb70ff9614610102575b7fe1d5bef947f36a9d6903a61d643fe4053e7897f1b3136059d255e83c547c0be2600036604051808060200182810382528484828181526020019250808284378201915050935050505060405180910390a1005b6100be61011a565b005b6100d6600480803590602001909190505061021e565b005b61010060048080359060200190919080359060200190919080359060200190919050506104a4565b005b6101186004808035906020019091905050610601565b005b6000809054906101000a900473ffffffffffffffffffffffffffffffffffffffff1673ffffffffffffffffffffffffffffffffffffffff163373ffffffffffffffffffffffffffffffffffffffff1614151561017557600080fd5b6000600a6002543073ffffffffffffffffffffffffffffffffffffffff16310303111561021c576000809054906101000a900473ffffffffffffffffffffffffffffffffffffffff1673ffffffffffffffffffffffffffffffffffffffff166108fc600a6002543073ffffffffffffffffffffffffffffffffffffffff163103039081150290604051600060405180830381858888f19350505050151561021b57600080fd5b5b565b60008060008360008110158015610236575060035481105b151561024157600080fd5b6000809054906101000a900473ffffffffffffffffffffffffffffffffffffffff1673ffffffffffffffffffffffffffffffffffffffff163373ffffffffffffffffffffffffffffffffffffffff1614151561029c57600080fd5b60016000868152602001908152602001600020805490509350836002548115156102c257fe5b049250600091505b8382101561036a5760016000868152602001908152602001600020828154811015156102f257fe5b906000526020600020900160009054906101000a900473ffffffffffffffffffffffffffffffffffffffff1673ffffffffffffffffffffffffffffffffffffffff166108fc849081150290604051600060405180830381858888f19350505050151561035d57600080fd5b81806001019250506102ca565b7f9875afc96e5c04d58969e081ff38b7668d69a1e80ade9e7350fc48d7d4f8eab460016000878152602001908152602001600020600254876004546040518080602001858152602001848152602001838152602001828103825286818154815260200191508054801561043257602002820191906000526020600020905b8160009054906101000a900473ffffffffffffffffffffffffffffffffffffffff1673ffffffffffffffffffffffffffffffffffffffff16815260200190600101908083116103e8575b50509550505050505060405180910390a16000600281905550600091505b600354821015610486576001600083815260200190815260200160002060006104799190610666565b8180600101925050610450565b60035460045414151561049d576004546003819055505b5050505050565b600083600081101580156104b9575060035481105b15156104c457600080fd5b826103e8348115156104d257fe5b0481101515156104e157600080fd5b600092505b8483101561056f576001600087815260200190815260200160002080548060010182816105139190610687565b9160005260206000209001600033909190916101000a81548173ffffffffffffffffffffffffffffffffffffffff021916908373ffffffffffffffffffffffffffffffffffffffff1602179055505082806001019350506104e6565b833460025401036002819055507f3053e3841ad2beaf0985303e835881b752bd9d9ce2b5822b0ee0c6311a62e1f5338786340387604051808573ffffffffffffffffffffffffffffffffffffffff1673ffffffffffffffffffffffffffffffffffffffff16815260200184815260200183815260200182815260200194505050505060405180910390a1505050505050565b6000809054906101000a900473ffffffffffffffffffffffffffffffffffffffff1673ffffffffffffffffffffffffffffffffffffffff163373ffffffffffffffffffffffffffffffffffffffff1614151561065c57600080fd5b8060048190555050565b508054600082559060005260206000209081019061068491906106b3565b50565b8154818355818115116106ae578183600052602060002091820191016106ad91906106b3565b5b505050565b6106d591905b808211156106d15760008160009055506001016106b9565b5090565b905600a165627a7a7230582013c02975c2764e3ef55ff85bae5b6105883c1bf3ec129eca86deabff4204f20b0029",
  "source": "pragma solidity ^0.4.17;\n\ncontract WheelOfFortune {\n    address owner; //创建者\n    mapping(uint => address[]) playersOfWheel; //当前转盘每一格对应的玩家\n    uint betPool; //当前奖金池\n    uint pieceCount; //转盘块数\n    uint nextPieceCount; //下一次更新转盘块数\n    \n    function WheelOfFortune(uint initPieceCount) public payable {\n        owner = msg.sender;\n        pieceCount = initPieceCount;\n        nextPieceCount = initPieceCount;\n    }\n\n    modifier onlyOwner {\n        require(msg.sender == owner);\n        _;\n    }\n\n    modifier validPieceIndex(uint pieceIdx) {\n        require(pieceIdx >= 0 && pieceIdx < pieceCount);\n        _;\n    }\n\n    // 每次下注收取千分之一的小费\n    modifier validTips(uint tips) {\n        require(tips >= msg.value / 1000);\n        _;\n    }\n\n    // 匿名函数，当外部调用找不到时调用该函数\n\tevent FallbackTrigged(bytes data);\n    function() public payable {\n        FallbackTrigged(msg.data);\n    }\n\n    event MakeBetEvent(address player, uint pieceIdx, uint totalBet, uint tips);\n    function makeBet(uint pieceIdx, uint betCount, uint tips) public payable validPieceIndex(pieceIdx) validTips(tips) {\n        // 同一块用户可以重复下注，不做限制\n        for (uint idx = 0; idx < betCount; idx++) {\n            playersOfWheel[pieceIdx].push(msg.sender);\n        }\n        betPool = betPool + msg.value - tips;\n        MakeBetEvent(msg.sender, pieceIdx, msg.value - tips, tips);\n    }\n\n    event FinishRoundEvent(address[] winners, uint betPool, uint pieceIdx, uint nextPieceCount);\n    function finishRound(uint pieceIdx) public payable validPieceIndex(pieceIdx) onlyOwner {\n        // 将奖金池所有奖金平均分配给各个获奖者\n        uint winnerCount = playersOfWheel[pieceIdx].length;\n        uint prize = betPool / winnerCount;\n        for (uint idx = 0; idx < winnerCount; idx++) {\n            playersOfWheel[pieceIdx][idx].transfer(prize);\n        }\n        FinishRoundEvent(playersOfWheel[pieceIdx], betPool, pieceIdx, nextPieceCount);\n        // 重新初始化奖金池\n        betPool = 0;\n        for (idx = 0; idx < pieceCount; idx++) {\n            delete playersOfWheel[idx];\n        }\n        // 判断是否需要更新转盘块数\n        if (nextPieceCount != pieceCount) {\n            pieceCount = nextPieceCount;\n        }\n    }\n\n    event IncreasePieceCountEvent(uint count);\n    function increasePieceCount(uint newPieceCount) public payable onlyOwner {\n        nextPieceCount = newPieceCount;\n    }\n\n    // 提取小费\n    function withDrawTips() public payable onlyOwner {\n        if (this.balance - betPool - 10 > 0) {\n            // 让合约保留10wei周转\n            owner.transfer(this.balance - betPool - 10);\n        }\n    }\n\n}",
  "sourcePath": "/Users/forrestlin/DApps/WheelOfFortune/contracts/WheelOfFortune.sol",
  "compiler": {
    "name": "solc",
    "version": "0.4.18+commit.9cf6e910.Emscripten.clang"
  },
  "schemaVersion": "1.0.1",
  "updatedAt": "2018-02-23T10:05:49.546Z"
}